:020000040800F2
:1000000000A0002055110008511100084F110008F0
:100010004F1100084F1100084F11000800000000A8
:100020000000000000000000000000005111000866
:100030005111000800000000511100085111000882
:100040004F1100084F1100084F1100084F11000810
:100050004F1100084F1100084F1100084F11000800
:100060004F1100084F1100084F1100084F110008F0
:100070004F1100084F1100084F1100084F110008E0
:100080004F1100084F1100084F1100084F110008D0
:100090004F1100084F1100084F1100084F110008C0
:1000A0004F1100084F1100084F1100084F110008B0
:1000B0004F1100084F1100084F1100084F110008A0
:1000C0004F1100084F1100084F1100084F11000890
:1000D0004F1100084F1100084F1100084F11000880
:1000E0004F1100084F1100084F1100084F11000870
:1000F0004F1100084F1100084F1100084F11000860
:100100004F1100084F1100084F1100084F1100084F
:100110004F1100084F1100084F1100084F1100083F
:100120004F1100084F1100084F1100084F1100082F
:100130004F1100084F1100084F1100084F1100081F
:100140004F1100084F1100084F1100084F1100080F
:10015000064908460A6812F08002FBD1044B1A6077
:100160000268D207FCD51868C0B270470838004052
:100170000C38004010B51C4C40F28E3000F04CFFA3
:1001800020464FF420430222032100F0B5FD4FF436
:100190008043012200212046A4F5544400F0ACFD28
:1001A000204600F078FF0021204600F069FF20463D
:1001B00000F076FF204600F078FF204600F048FF70
:1001C000204600F04AFF204600F055FF204600F090
:1001D0004DFF064A2046BDE81040136823F4006333
:1001E000136000F027BF00BF000C01401C38004026
:1001F00010B54FF4805104460E4800F0AEFD4FF4A8
:1002000080610C4800F0A9FD0B4B1B6800BF00BFCC
:1002100000BF00BF00BF0948214600F010FF084A98
:100220001368DB07FCD5BDE810404FF4806101483E
:1002300000F091BD000C01400C3800400038004037
:100240000838004010B54FF4805104460D4800F0C6
:1002500082FD4FF480610B4800F07FFD00BF00BFBE
:1002600000BF00BF00BF0848214600F0EAFE074A71
:100270001368DB07FCD5BDE810404FF480610148EE
:1002800000F069BD000C0140003800400838004013
:1002900038B50C4605461034D920FFF7A9FFE0B267
:1002A000FFF7D0FF4FF48051134800F056FD4FF494
:1002B0008061114800F051FD00BF00BF00BF00BFCA
:1002C00000BF0E48294600F0BCFE0D4A1368DB074C
:1002D000FCD54FF48051084800F03DFD00BF00BF41
:1002E000084B1B68FFF734FF04464FF48061024857
:1002F00000F031FD204638BD000C014000380040C0
:10030000083800400C38004073B5012426460C4BD9
:1003100001AD1A889B78ADF804208DF80630E1B263
:10032000D320FFF7B5FF15F8013B0134984218BF01
:100330000026042CF3D106B1012002B070BD00BF2D
:10034000C87C000838B54FF480510446050A1248AD
:1003500000F001FD4FF480610F4800F0FEFC0A231D
:1003600000BF013B13F0FF03FAD129460B4800F010
:1003700068FE0B4B1D461A68D207FCD50748E1B250
:1003800000F05FFE2B68DB07FCD5BDE838404FF47A
:100390008061014800F0DFBC000C014000380040E3
:1003A0000838004038B505460C462A20FFF720FFE4
:1003B0002846FFF7C7FF2046BDE83840FFF7C2BF19
:1003C00038B505460C462B20FFF712FF2846FFF7ED
:1003D000B9FF2046BDE83840FFF7B4BF10B5EF21A4
:1003E0000020FFF7DFFF40F23F110020FFF7E8FF9A
:1003F0002C20FFF7FDFE4FF48051114800F0ABFCBC
:100400004FF480610E4800F0A8FC0F2300BF013BB1
:100410009BB2002BFAD14FF41644013CA4B2FFF773
:1004200097FEFFF795FEFFF793FEFFF791FE002C76
:10043000F3D14FF48061BDE81040014800F08BBC5F
:10044000000C014010B54FF480618F4800F083FC30
:100450004FF480518C4800F07EFC4FF400618A48D4
:1004600000F07BFC4FF47A7400BF013CFCD14FF4E8
:100470000061854800F06FFCFFF746FFFFF744FF7F
:10048000FFF742FFCB20FFF7B3FE3920FFF7DAFE7C
:100490002C20FFF7D7FE2046FFF7D4FE3420FFF7CD
:1004A000D1FE0220FFF7CEFECF20FFF7A1FE2046AF
:1004B000FFF7C8FEC120FFF7C5FE3020FFF7C2FEE0
:1004C000E820FFF795FE8520FFF7BCFE2046FFF7EA
:1004D000B9FE7820FFF7B6FEEA20FFF789FE204636
:1004E000FFF7B0FE2046FFF7ADFEED20FFF780FEE0
:1004F0006420FFF7A7FE0320FFF7A4FE1220FFF7FA
:10050000A1FE8120FFF79EFEF720FFF771FE20205D
:10051000FFF798FEC020FFF76BFE2320FFF792FE47
:10052000C120FFF765FE1020FFF78CFEC520FFF706
:100530005FFE3E20FFF786FE2820FFF783FEC720E0
:10054000FFF756FE8620FFF77DFE3620FFF750FEB0
:100550004820FFF777FE3A20FFF74AFE5520FFF7C5
:1005600071FEB120FFF744FE2046FFF76BFE182016
:10057000FFF768FEB620FFF73BFE0820FFF762FE9C
:100580008220FFF75FFE2720FFF75CFEF220FFF7D7
:100590002FFE2046FFF756FE2620FFF729FE0120FA
:1005A000FFF750FEE020FFF723FE0F20FFF74AFE83
:1005B0003120FFF747FE2B20FFF744FE0C20FFF70A
:1005C00041FE0E20FFF73EFE0820FFF73BFE4E20C7
:1005D000FFF738FEF120FFF735FE3720FFF732FE38
:1005E0000720FFF72FFE1020FFF72CFE0320FFF758
:1005F00029FE0E20FFF726FE0920FFF723FE2046E6
:10060000FFF720FEE120FFF7F3FD2046FFF71AFE7B
:100610000E20FFF717FE1420FFF714FE0320FFF74C
:1006200011FE1120FFF70EFE0720FFF70BFE312011
:10063000FFF708FEC120FFF705FE4820FFF702FE86
:100640000820FFF7FFFD0F20FFF7FCFD0C20FFF750
:10065000F9FD3120FFF7F6FD3620FFF7F3FD0F20FF
:10066000FFF7F0FD1120FFF7C3FD42F2107300BF4A
:10067000013BFCD12920FFF7BBFD2C20FFF7B8FD83
:10068000BDE81040FFF7AABE000C014010B50C46B3
:100690000146FFF787FE20462146FFF791FEBDE8A1
:1006A00010402C20FFF7A4BD10B51446FFF7EEFF55
:1006B0002046BDE81040FFF745BE70B50D468118D5
:1006C00089B214461E46FFF76DFE29462846FFF7FD
:1006D00077FE2C20FFF78CFD0025A54200D170BDD0
:1006E0003046FFF72FFE0135F7E770B50D4614468B
:1006F00001461E46FFF756FE2919284689B2FFF724
:100700005FFE2C20FFF774FD0025A54200D170BDCF
:100710003046FFF717FE0135F7E703468B420846E0
:1007200003D3934228BF13461846704788422DE9E9
:10073000F84382BF0446084621469A4282BF1446C7
:100740001A46234640F23F14EF2828BFEF20EF2936
:1007500028BFEF21A24228BF2246A34228BF23463A
:1007600095B29CB2631B01330F1A07FB0337BDF828
:100770002060FFF717FE21462846FFF721FE2C20B8
:10078000FFF736FD4FF48051154800F0E4FA4FF4BE
:100790008061134800F0E1FA0F2400BF013CFCD156
:1007A000104DDFF844804FEA1629BC4206D1BDE85F
:1007B000F8434FF480610A4800F0CDBA4946284614
:1007C00000F03FFCD8F80030DA07FBD52846F1B23C
:1007D00000F037FCD8F80030DB07FBD50134E4E744
:1007E000000C0140003800400838004030B4BDF82B
:1007F000085084180B440A460295A1B29BB230BC43
:10080000FFF794BF2DE9F74F91469A464FF6FF7BCD
:100810000646814594BF5B4601230D468A4588BF45
:100820004FF0010BA9EB0007A1EB0A08BFB21FFABA
:1008300088F807EB0804BDF83020A4B229463046FA
:10084000CDE90023FFF730FFDDE90023610089B225
:10085000884505D84E450CD044441E44A4B2B6B2D7
:100860008F42EBD3554504D03C445D44A4B2ADB2B5
:10087000E4E703B0BDE8F08F2DE9F04F8A461E464D
:100880000027C2F1010485B05542640001902DB2E9
:1008900024B2019B1FFA85F8A3EB080B1FFA87F916
:1008A0001FFA8BFB09EB0A0189B2324658460291C6
:1008B000FFF7FAFE019B324608EB030080B2029973
:1008C0000390FFF7F1FEAAEB090189B232460398C3
:1008D0000291FFF7E9FE324658460299FFF7E4FE1F
:1008E000A74219DB09F101073FB204EB47030133CB
:1008F000EF421BB202D1A54202DB0024A5420DDA71
:1009000008F101052DB203EB4504013424B2002D9A
:10091000BFDD05B0BDE8F08F2346EFE71C46F6E7E4
:100920002DE9F74F81469B460026C2F1010455424E
:10093000640000912DB224B2009B1FFA86F8AFB27A
:10094000A3EB080A1FFA8AFA4FEA4802A9EB07004C
:1009500092B25B46514680B20192FFF7C6FE07EBAA
:1009600009005B465146019A80B2FFF7BEFEA642DF
:1009700018DB08F1010636B204EB46020132EE4202
:1009800012B202D1A54202DB0024A5420CDA7D1C82
:100990002DB202EB4504013424B2002DCCDD03B0AE
:1009A000BDE8F08F2246F0E71446F6E72DE9F04F58
:1009B0001E46A0F120035F2B044688BF1F240D466E
:1009C00090460827154885B004F10054203CBDF836
:1009D000389000EBC40441464FF0000A14F801BB04
:1009E0004BFA0AF3DB0708D5334632462846CDF8E2
:1009F00000900391FFF7FAFE03990AF1010A3144CE
:100A0000BAF1080F89B2EBD1013F3544BFB2ADB2A4
:100A1000002FE0D105B0BDE8F08F00BFCB7C00080F
:100A20002DE9F7430C4691461F4603EB43056D0045
:100A3000BDF82880ADB2461E16F8010F10B903B0FC
:100A4000BDE8F08321463B464A46CDF80080FFF7DB
:100A5000ADFFEE2C9CBF6419A4B2EDE78908D20863
:100A600042EA4112C00842EAC02080B2704700BF8B
:100A70000128F8B50E46144610D000F0BDFB052342
:100A800003604FF0FF3008E0715D384600F04CFB2A
:100A90000135A542F8DB24EAE470F8BD0025014FDA
:100AA000F7E700BF0038014007B5874800F050FA6B
:100AB00040F2023000F0B0FA40F2033000F0ACFA3D
:100AC00040F20E3000F0A8FA8023002203217F4874
:100AD00000F012F94FF48053002203217B4800F00C
:100AE0000BF94FF4006300220321784800F004F969
:100AF0004FF4806300220321744800F0FDF82023A6
:100B000000220321724800F0F7F84FF4007302222C
:100B100003216F4800F0F0F84FF4E1316D4800F028
:100B2000C9FA08216B4800F0D9FA0021694800F0A1
:100B3000DEFA0821674800F0E6FA0021654800F077
:100B4000DCFA0021634800F0E4FA624800F0E7FABA
:100B5000FFF710FB604800F0ADFB20215C4800F07F
:100B6000FAF85E4B00BF013BFCD12021584800F051
:100B7000F4F85B4800F09EFB7F235A4A5A490093E1
:100B80005A485B4B00F04EFB8021504800F0E3F8E0
:100B9000FFF758FCFFF722FC80214C4800F0DDF8FD
:100BA00042F2107300BF013BFCD148F210430A220D
:100BB0003C21C820FFF781FD42F2107300BF013BCA
:100BC000FCD14FF47842C8214FF49B70FFF76CFDC5
:100BD00042F2107300BF013BFCD14FF6E072C82116
:100BE0006420FFF761FD42F2107300BF013BFCD1AE
:100BF0004FF4FC6300930A2364211A463220FFF766
:100C0000F5FD42F2107300BF013BFCD11F2300939E
:100C100032230A211A46C820FFF7E8FD42F210737A
:100C200000BF013BFCD14FF6FF73D22100930A2293
:100C30001E23BE20FFF7DAFD42F2107100BF01391A
:100C4000FCD14FF6E0730A22009308461E23FFF7FB
:100C5000CDFD42F2107300BF013BFCD14FF4FC63A9
:100C6000C8210093642308461A46FFF7CBFD42F2E1
:100C7000107300BF013BFCD14FF478431E22322198
:100C80005A20FFF7F9FD42F2107300BF013BFCD17F
:100C9000322244F2082311469620FFF741FE42F229
:100CA000107300BF013BFCD14FF4FC638C22009316
:100CB000142103230F48FFF7B3FE42F2107300BF65
:100CC000013BFCD1FEE700BFB4800008000C0140EE
:100CD0000008014000380140CB7F0008A0860100D9
:100CE000D27F0008FA7F0008038000080F80000808
:100CF000EC7F00083F8000082DE9F0414FF00F0C19
:100D000000250768466843FA05F4E4071CD5072D5B
:100D100094BFBE46B646ACB24FEA84048ABF203CBC
:100D2000A4B2A4B20CFA04F82EEA080804F1020EE8
:100D300002FA0EFE01FA04F44EEA040444EA08043E
:100D4000072D94BF274626460135102DDBD10760BD
:100D50004660BDE8F0810161704709040161704798
:100D6000024A136843F0807313607047001002401A
:100D7000062822D8DFE800F004090E13181D1F0012
:100D80000F4B1868C0F3406070470D4B1868C0F3F4
:100D9000C06070470A4B1868C0F340707047084B3A
:100DA0001868C0F340407047054B1868C0F3400016
:100DB0007047044BF9E7044BF7E70020704700BF8A
:100DC000001002402010024024100240024608B5E4
:100DD0001046FFF7CDFF0028FAD008BD06280CD832
:100DE000DFE800F004060C11161B1D00FFF7B8BF6A
:100DF0000C4A136843F0806313607047094A136814
:100E000043F08053F8E7074A136843F48033F3E76D
:100E1000044A136843F00103EEE7034AF9E7034A83
:100E2000F7E700BF001002402010024024100240EB
:100E3000034A136823F0030303431360704700BFA2
:100E400004100240034A136823F4701343EA8043FA
:100E50001360704704100240034A136823F4706360
:100E600043EA0023136070472C100240034A1368C2
:100E700023F4704343EA0033136070472C100240A0
:100E8000034A136823F4803343EA00431360704736
:100E900004100240034A136823F4003343EA40433A
:100EA0001360704704100240034A136823F4404360
:100EB00043EA80331360704704100240034A13680A
:100EC00023F4605343EAC0231360704704100240C8
:100ED000034A136823F4E06343EA00231360704776
:100EE00004100240034A136823F0F00343EA00139E
:100EF0001360704704100240044B1A6818B142F4A2
:100F000080021A60704722F48002FAE7041002405F
:100F1000034A136823F00F0303431360704700BFB5
:100F20002C100240034A136823F0F00343EA001335
:100F3000136070472C100240044B1A6818B142F439
:100F400080321A60704722F48032FAE72C10024097
:100F500010B543780446012B50D10320FFF73EFF24
:100F60000320FFF733FFA078FFF7BCFFE078FFF71F
:100F7000AFFF2079FFF7A2FF6079FFF795FF207B95
:100F8000FFF7BAFFA07900F02DF92078FFF75AFF9C
:100F90006078FFF775FFE079012834D9FFF7B8FFD3
:100FA000207A08B1FFF7C8FF607A08B1FFF7BAFFEF
:100FB000A07A38B1FFF750FF0120FFF70FFF0120A3
:100FC000FFF704FFE07A38B1FFF750FF0220FFF788
:100FD00005FF0220FFF7FAFEFFF7C2FE0020FFF731
:100FE000F5FE0220FFF724FF2269084B1A606269B0
:100FF000074B1A60A269074B1A6010BD0420FFF767
:10100000EDFE0420ADE7FFF745FFC9E70000002033
:1010100004000020080000200122430903F180435E
:1010200003F50433196800F01F0002FA00F00843CA
:1010300018607047036843F0400303607047C16065
:101040007047C1608368DB07FCD5C06880B2704719
:10105000036823F4004303607047036843F400739C
:101060000360436823F0040343607047036843F45C
:10107000807303607047036823F080030360704748
:10108000072907D8036823F038031B041B0C43EA25
:10109000C10101607047036843F0040303607047B7
:1010A000036823F0020303607047036823F0010321
:1010B00003607047064A074B90421B6804BF064B0B
:1010C0001B6803EB5103B3FBF1F18160704700BF74
:1010D000003801400400002008000020C3680829EF
:1010E0000CBF23F4805343F48053C36070470369FB
:1010F00023F440530B4303617047C36823F4C06378
:101100000B43C3607047C36823F00C030B43C360F9
:101110007047436923F440730B4343617047C368CE
:1011200043F40053C360704738B504460D4600F0E1
:101130000AF829462046BDE8384000F000B8C1F35F
:1011400008014160704703681B06FCD57047FEE745
:101150007047000038B5184A184B19498B4217D30D
:101160000021184A934218D3174A184C1368184D97
:1011700043F400731360AC4212D3164C164DAC42CC
:1011800012D3FFF791FC154C154DAC4210D338BD6E
:1011900052F8040B43F8040BE0E743F8041BE1E7C3
:1011A00054F8043B9847E6E754F8043B9847E6E7D1
:1011B00054F8043B9847E8E77084000800000020DA
:1011C000BC090020F809002014ED00E06884000844
:1011D000688400086884000868840008688400083F
:1011E00068840008034A136823F00703034313606D
:1011F000704700BF00200240014B1868704700BFD5
:10120000100000200EB410B583B005AC54F8042BC8
:1012100081682346019400F083F803B0BDE81040D4
:1012200003B070470FB410B5074B82B004AC54F84C
:10123000042B186823468168019400F071F802B00D
:10124000BDE8104004B070471000002070B505469E
:1012500088B008460C4600F035F8012202261449F1
:10126000AB6B05900792104404AA04940390AC68F9
:10127000029606910192B3B1B4F90C309A0406D4E7
:10128000626E43F4005322F40052A3816266214649
:10129000284601AA02F09AFE002814BF4FF0FF3042
:1012A0000A2008B070BD284602F026FDE4E700BF22
:1012B000D4800008024B01461868FFF7C7BF00BF83
:1012C0001000002020F0030110F00300C0F1000026
:1012D00051F8043B00F1040C4FEACC0C6FF0000213
:1012E0001CBF22FA0CF213434FF0010C4CEA0C2CF9
:1012F0004CEA0C4CA3EB0C0222EA030212EACC12D9
:1013000004BF51F8043B0430F4D0C2F1000102EAFA
:101310000102B2FA82F2C2F11F0200EBD200704762
:101320002DE9F04FBFB01C460891914605460C9040
:1013300003F01AF803680D9418461593FFF7C2FFDF
:1013400013901DB1AB6B002B00F056830899B1F9D7
:101350000C20084693B29E0407D4496E42F4005311
:1013600021F40051838141669BB21D0740F1CF807B
:10137000089A1269002A00F0CA8003F01A030A2BA7
:1013800000F0D380002300210022CDE92233CDE9F3
:1013900010120DF1B80A1293149316930993CDF815
:1013A00084A099F80030002B00F0DB80252B00F0A2
:1013B000B4864D4603E0252B00F0C58025466B78AA
:1013C0006C1C002BF7D1B4EB090600F0CA80DDE9F4
:1013D000223201333244072BCAE90096CDE922328A
:1013E00000F3B6800AF1080A099A6B783244099230
:1013F000002B00F0B68000234FF0FF361A46194646
:101400009B4667788DF867300A9304F1010909F16A
:101410000109A7F12003582B00F2F282DFE813F054
:10142000CA02F002F002D202F002F002F002F00270
:10143000F002F0022002AC02F002A702B102F002B8
:10144000C000B100B100B100B100B100B100B10005
:10145000B100B100F002F002F002F002F002F0027E
:10146000F002F002F002F0028D024E02F0024E0293
:10147000F002F002F002F0024502F002F002680011
:10148000F002F002F002F002F0025900F002F00265
:101490002D02F002F002F002F002F002F002F0027F
:1014A000F002F002F002A7016D014E024E024E0260
:1014B00068016D01F002F0025B01F00245016A0073
:1014C00015011001F002E600F0025B00F002F002EC
:1014D000C5004BF0100B1BF0200F00F082820D9C1A
:1014E000073424F00703F3E802450D930123BCE021
:1014F0004BF0100B1BF0200300F069820D9C0734A9
:1015000024F00703F3E802450D930023ADE00899AA
:101510000C9801F0DDF9002841F02381089B9B899C
:1015200003F01A030A2B7FF42DAF089BB3F90E309A
:10153000002BFFF627AF23464A4608990C9801F086
:1015400091F9099019E0B4EB09063FF454AF3EE776
:1015500021AA08990C9804F0B3FA48B90DF1B80A19
:1015600042E7239B23B10C9821AA089904F0A8FA1A
:10157000089B9B895A0601F1F48009983FB0BDE8A9
:10158000F08F0020A7F1300319F8017B00EB8000F9
:1015900003EB4000A7F13003092BF5D90A9038E797
:1015A0004BF0800B99F8007031E7002A41F0BD80C4
:1015B000C04B1BF0200F149300F068810D9C073482
:1015C00024F00703F3E802450D931BF0010F00F030
:1015D000288254EA050300F0248230238DF86970D4
:1015E0008DF868304BF0020B02233EE000250D9C85
:1015F0008DF8675054F8043B0E93002B00F07D8665
:10160000711C00F04F87324629460E9803F0D0F93E
:10161000002801F06C802E460E9BC31A0B939DF898
:10162000678023EAE3730D94CDF818B007930F9603
:10163000B8F1000F00F0AD80079B01330793A8E0DD
:101640004BF0200B99F80070E1E647F630030D9C53
:10165000ADF8683054F8042B964B0D94149314464F
:101660000025022378274BF0020B002290468DF8CC
:101670006720721C00F0D9812BF08002069254EA98
:10168000050240F0D081002E40F01584002B40F080
:10169000DB841BF001030B9300F0488530238DF8A9
:1016A000B7300DF1B7030E9359E0002A41F0518095
:1016B0000D9A1BF0200F52F8043B0D9240F03A8532
:1016C0001BF0100F40F052861BF0400F00F04E86CA
:1016D000099A1A8065E699F800706C2F03BF99F893
:1016E00001704BF0200B09F101094BF0100B8EE655
:1016F0004BF0400B99F8007089E6002A41F0198000
:101700001BF0200F00F022810D9C073424F007030A
:101710001946F1E8022314461D460D91002A73F183
:101720000003C0F2ED84731C9DF8678008D02BF095
:101730008003069354EA050300F08384DDF818B0B3
:10174000002D08BF0A2C80F05384012330340B9302
:101750000DF1B7038DF8B740CDF818B00E930B9B81
:10176000B342B8BF3346079300230F9360E70121CC
:1017700000220D9C079154F8043B8DF867208DF8EA
:10178000903024AB0D940B910E930026CDF818B039
:101790000F96069B13F0020302D0079A02320792BB
:1017A000069A239C12F0840B05D10A9A0799551AC0
:1017B000002D00F3B5829DF8672072B10120229AB6
:1017C000044402440DF16701072ACDE92224CAE945
:1017D000001000F31D830AF1080A6BB10221229B5D
:1017E0000C4401331AAA072BCDE92234CAE900219F
:1017F00000F31C830AF1080ABBF1800F00F09B8103
:101800000B9BF61A002E00F3E081069BDB0500F12E
:101810003981229B0B9A01330E991444072B239490
:10182000CAE90012229300F3E7820AF1080A069B34
:10183000590705D50A9B079A9D1A002D00F30283CC
:10184000DDE9093207998A42ACBF9B185B180993FE
:10185000002C40F0FF8100230DF1B80A2293A0E58F
:101860000D9B99F8007053F8040B00280A900D9313
:10187000BFF6CDAD43420A937BE0002A40F061877A
:101880000D4B1BF0200F14937FF498AE0D9B1BF0B3
:10189000100F53F8044B0D9340F03C841BF0400FA5
:1018A00000F03884A4B200258FE64BF0080B99F8BD
:1018B0000070ACE51C81000808810008002A40F097
:1018C00044870D9C073424F00703F3E80212144602
:1018D0000D930B46CDE9103422F000440D46084626
:1018E0004FF0FF322146C04B05F0ECFF002840F0DE
:1018F0003084284621464FF0FF32BB4B05F0C4FF31
:10190000002840F02684DDE910010022002305F0C4
:10191000B1FF002840F03F869DF867800321002634
:10192000B24AB34B0791472FC8BF1A462BF080002D
:1019300006900B910F960E927AE6002A40F0FD86F3
:101940004BF0100B1BF0200F7FF4DEAE0D9B1BF055
:10195000100F53F8044B0D9340F0CA831BF0400F57
:1019600000F0C68324B2E51722462B46D6E699F846
:1019700000704BF0040B4AE599F8007001222B210E
:1019800045E5484610F8017B2A2F00F04B87A7F168
:101990003003092B81464FF000063FF63AAD19F8A7
:1019A000017B06EB860603EB4606A7F13003092B05
:1019B000F5D92EE599F8007000297FF428AD0122B1
:1019C000202124E54BF0010B99F800701FE50D9ADA
:1019D00052F8044B0D921BF0100200F05D840025BC
:1019E00043E60D9B1BF0100F53F8044B0D9300F0D2
:1019F000A8830025012338E60C9802F07DF9A5E4C0
:101A0000002A40F0F285002F3FF4ABAD0023012205
:101A10008DF8673024AB07928DF890700B920E937F
:101A2000B3E6022321E6DDF818B0012B3FF488AEBF
:101A3000022B00F048822EA900E01146E20842EA9B
:101A40004572E80804F0070305461446303354EAAB
:101A5000050001F8013C01F1FF32EED11BF0010F4E
:101A60000E9200F0E782302B00F0788430230E9A3B
:101A7000023902F8013C2EAB5B1ACDF818B00B937B
:101A80000E916CE6652F40F3EE80DDE91001002237
:101A9000002305F0E5FE002800F02E820121229BA4
:101AA000544A0B440C44072B23942293CAE9002187
:101AB00000F3A6840AF1080A1B9B129A239C934206
:101AC00080F22E83229B139A013315991444072B1D
:101AD000CAE90012CDE9223400F302840AF1080AAF
:101AE000129B5D1E002D7FF7A2AE102D229A40F3AF
:101AF0007B841026DFF800B10C9FDDF8208005E024
:101B00000AF1080A103D102D40F3708401321034A0
:101B1000072ACDE92224CAE900B6F1DD21AA41460F
:101B2000384603F0CDFF00287FF422ADDDE9222402
:101B30000DF1B80AE6E70A9B079A9D1A002D7FF778
:101B40005FAE102D229A40F30886DFF8ACB0534602
:101B500058462146CA46BB46B1464FF010080C9C79
:101B6000089E074604E0103D102D03F1080315DD23
:101B700001321031072ACDE92221C3E90078F2DDD4
:101B800021AA3146204603F09BFF00287FF4F0ACE9
:101B9000DDE92221103D102D2EABE9DC4E46D14669
:101BA0009A463B460C465F469B4601322C44072A28
:101BB000CDE92224CAE900B500F32E840B9B0AF17B
:101BC000080AF61A002E7FF720AE102E229A40F354
:101BD000D184DFF824B0234659461025BB46DDF8F2
:101BE0003080089C0F460EE0FFFFEF7FF880000872
:101BF000FC80000838810008E8800008103E102EA4
:101C00000AF1080A16DD01321033072ACDE9222332
:101C1000CAE90075F2DD21AA2146404603F050FFD3
:101C200000287FF4A5ACDDE92223103E102E0DF133
:101C3000B80AE8DC1C463B465F469B46013234440A
:101C4000072ACDE92224CAE900B600F344820AF14A
:101C5000080ADAE521AA08990C9803F031FF002858
:101C60003FF4F9AD84E4129A229B012A04F10104A5
:101C700003F101050AF1080640F3F08101230E9AF1
:101C8000072DCAF80020CDE92254CAF8043000F329
:101C90008183139B0135159A1C44072DCDE92254ED
:101CA000C6E9002300F36A8308366B1C1F46DDE992
:101CB0001001B846129F0B930022002306F1080A78
:101CC000013F05F0CDFD002840F0DC810E9B3C4437
:101CD0000133B8F1070F336023947760CDF8888023
:101CE00000F3EE8206F1100356469A4605F102080B
:101CF000169A1DAB1444B8F1070F23947260CDF807
:101D0000888033607FF793AD21AA08990C9803F07F
:101D1000D7FE00287FF42CAC0DF1B80A239C86E591
:101D2000102D229A2CDD51462046CA464FF010084D
:101D3000B14617932E460C9C089D04E0103E102ED1
:101D400001F1080116DD0132C24B1030072ACDE93E
:101D50002220C1E90038F1DD21AA2946204603F0FE
:101D6000AFFE00287FF404ACDDE92220103E102EE7
:101D70002EA9E8DC354604464E46D1468A46179BD6
:101D80000132B4492C44072ACDE92224CAE90015BE
:101D900000F31B830AF1080A0DE521AA08990C98A3
:101DA00003F08EFE00287FF4E3AB1B9B239C0DF118
:101DB000B80A002B40F03D83069B129A03F0010302
:101DC00013433FF434AD229A139B013215991C44FE
:101DD000072A2394CAE90013229200F31A840AF115
:101DE000080A129B01320E991C44072ACDE92224CD
:101DF000CAE900137FF719AD21AA08990C9803F0DE
:101E00005FFE00287FF4B4AB239C0DF1B80A0EE509
:101E100021AA08990C98179303F052FE00287FF42A
:101E2000A7AB0DF1B80A239C179BD6E421AA089909
:101E30000C9803F045FE00287FF49AAB0DF1B80A28
:101E4000239CD9E4102D229B21DD10260C9FDDF868
:101E5000208004E0103D102D0AF1080A17DD01333F
:101E60007C4A1034072BCDE92234CAE90026F1DD83
:101E700021AA4146384603F023FE00287FF478ABC0
:101E8000DDE92234103D102D0DF1B80AE7DC0133F5
:101E9000704A2C44072BCDE92234CAE900257FF78C
:101EA000CFAC21AA08990C9803F00AFE00287FF411
:101EB0005FAB239CC4E4012B00F0C583022BDDF84B
:101EC00018B07FF4B8ADDDF850C02EAA230943EA5C
:101ED0000573280904F00F0105461C461CF8013063
:101EE00002F8013D54EA0503F0D12EAB9B1A0E9285
:101EF000CDF818B00B9332E41B9B002B40F35682B5
:101F0000129B0F9A9342A8BF1346002B1D460CDD6F
:101F1000229B0E9A01332C44072B2394CAE90025F7
:101F2000229300F3C7830AF1080A0F9B002DA8BF74
:101F30005B1B002B1D4600F3EB811B9A129B9A4200
:101F400080F2B281229B1399013315980C44072B20
:101F50002394CAE90001229300F33A830AF1080AA4
:101F60000F99129B9142A3EB020380F203821D465C
:101F7000002D10DDDDE90E10229A014401322C44BF
:101F8000072ACAF800102394CAF80450229200F3DA
:101F90009D830AF1080A002DB4BF1D465D1B002D6C
:101FA0007FF745AC102D229A40F31E821026DFF8F1
:101FB000A8B00C9FDDF8208005E00AF1080A103D6A
:101FC000102D40F3138201321034072ACDE9222468
:101FD000CAE900B6F1DD21AA4146384603F070FD9A
:101FE00000287FF4C5AADDE922240DF1B80AE6E74E
:101FF0002EABCDF81890C146B0461E4601E004460F
:102000000D460A2200232046294605F099FC30326D
:1020100006F8012D00230A222046294605F090FCEF
:10202000002D08BF0A2CEAD232460E964646C84614
:10203000DDF818902EAB9B1ACDF818B00B93FFF774
:102040008EBB002E40F0FF8200262EAB0E930B9627
:10205000FFF785BBD8800008E8800008069AD00703
:102060003FF50CAE01220E99072DCAF80010CDE9FC
:102070002254CAF8042000F3948203F102080AF102
:10208000100A35E6002F7FF733AE102F40F3C383DD
:1020900023464FF01008DFF850B4DDF830A0089C5C
:1020A0000B9D05E00836103F102F40F302820135EA
:1020B0001033072DCDE92253C6E900B8F2DD21AA7D
:1020C0002146504603F0FCFC00287FF451AADDE9CC
:1020D00022532EAEE7E721AA08990C9803F0F0FCF2
:1020E00000287FF445AA0DF1B80A239CFFF78DBBA9
:1020F000E51722462B46002A73F10003BFF613AB07
:102100004FF02D08644265EB45058DF8678001238B
:10211000FFF7AFBA0025FFF758BA4C46FFF76BB987
:10212000069BDE073FF5CEACFFF781BB2EAB0E93CF
:10213000FFF715BB099A1046D117C3E90001FFF755
:1021400030B91BF0400F18BFA4B200250123FFF7E0
:102150008CBADDE9100102460B4605F0B3FB0028FE
:1021600040F02E8327F02003741C079300F0BD82FB
:10217000472B00F04A82DDE910124BF48073151EE4
:102180000693C0F21F820023DDF840801793662F6C
:1021900000F0AC81462F00F0A981079B4246452BF9
:1021A0004FF002002B4600F052821FA9CDE9000635
:1021B00004911CA81BA9CDE902100C9800F086FC24
:1021C000672F0E90344640F04F821BF0010F40F015
:1021D0004E821B9A1F9B0F920E9A9B1A1293079B7B
:1021E000472B06D10F9BD81C02DB9E4280F2538204
:1021F000023F0F9B8DF874705A1E002AA8BF2B2334
:102200001B92BCBFC3F101022D23092A8DF8753042
:1022100040F3AC820DF183042046B04D01E0084646
:102220001A4685FB0231D317C3EBA10303EB8301ED
:10223000A2EB41013031632A00F8011C00F1FF31AB
:10224000EDDC3033821EDBB2944201F8013C40F2F7
:10225000E6820DF1760201E011F8013B8C4202F8B2
:10226000013BF9D10DF185030DF176021B1A1344E0
:102270001DAA9B1A1693129A169B012A13440B93BC
:1022800040F395820B9B139A13440B9323EAE37359
:10229000079300230F9363E11BF040031CBF134619
:1022A000A4B20025FFF7E1B9069BDD073FF54AAE72
:1022B0000F99129B8A42A3EB02035BDD1D466AE67F
:1022C00021AA08990C9803F0FBFB00287FF450A981
:1022D000DDE922340DF1C00A03F101082EAE07E555
:1022E00021AA08990C9803F0EBFB00287FF440A981
:1022F0000DF1B80A239CFFF7F3BB062E334628BF27
:1023000006230B930793764B0D940E93FFF73DBA7C
:10231000102B229A40F332811026DFF8CCB10C9FAB
:10232000DDF8208005E00AF1080A103D102D40F389
:10233000278101321034072ACDE92224CAE900B6E8
:10234000F1DD21AA4146384603F0BAFB00287FF4AC
:102350000FA9DDE922240DF1B80AE6E70E9A2EABAB
:102360009B1ACDF818B00B93FFF7F9B9099A1A60C8
:10237000FFF717B8129A0F99551AF9E521AA08998B
:102380000C9803F09DFB00287FF4F2A8DDE92254AD
:102390002EAE8AE421AA08990C9803F091FB00283C
:1023A0007FF4E6A8DDE922542EAE72E40120229AE1
:1023B0004C4902440444072ACDE92224CAE900100A
:1023C0003FF7EBAC0AF1080AF3E421AA08990C984C
:1023D000179303F075FB00287FF4CAA80DF1B80A23
:1023E000239C179BFFF7E7B9DFF8FCB001322C44C0
:1023F000072ACDE92224CAE900B57FF716AAFBE433
:1024000021AA08990C9803F05BFB00287FF4B0A880
:102410000DF1B80AFFF750BB21AA08990C9803F0F8
:102420004FFB00287FF4A4A80DF1B80A239CFFF706
:10243000E7B9229A1399013215980C44072A23947C
:10244000CAE90001229200F3E4800AF1080A002B95
:10245000BFF6C7AC5D42103380F2EF81DFF888B081
:1024600010265F46DDF82080DDF830B005E00AF187
:10247000080A103D102D40F3828101321034072AE2
:10248000CDE92224CAE90076F1DD21AA4146584669
:1024900003F016FB00287FF46BA8DDE922240DF180
:1024A000B80AE6E70E98FEF70DFF2E460346FFF743
:1024B000B5B81C4605F1010806F108023C44B8F124
:1024C000070F2394C6E900B7CDF888803FF7F8AE30
:1024D00008F1010802F1080A164609E46766666613
:1024E0003081000838810008E880000803201FA917
:1024F000CDE9000604911CA81BA92B46CDE90210CA
:1025000042460C9800F0E2FA0E900E9B84191B785C
:10251000302B6ED01B9B1C444046294600220023D2
:1025200005F09EF9002800F0A58023460E9A9B1A1C
:1025300012931B9B0F93079B472B3FF453AE662FC1
:102540007FF457AE0F9A0BF00103002A43EA06030B
:1025500040F35481002B40F04C810F9B07930B9369
:10256000179B002B00F092802D2300268DF86730FA
:10257000FFF762B8DFF8D0B2FFF760BBDFF8C8B290
:1025800001322C44072ACDE92224CAE900B54EDCE9
:102590000AF1080AD1E42D2398468DF86730FFF739
:1025A000BDB921AA08990C9803F08AFA00287EF494
:1025B000DFAFDDE922342EAE03F101080DF1C00AD0
:1025C000FFF796BB2D23884602F100451793DEE501
:1025D00021AA08990C9803F073FA00287EF4C8AF7A
:1025E0000DF1B80A1B9A239CBAE48DF86710FFF727
:1025F0000ABA404629460022002305F031F9002896
:1026000088D1C6F101031B9385E7002E08BF012680
:10261000B1E521AA08990C9803F052FA00287EF43B
:10262000A7AFDDE922240DF1B80A1B9B0FE721AA11
:1026300008990C9803F044FA00287EF499AF0DF144
:10264000B80A239C79E4DDF818B0FFF77EB81FA91B
:10265000009004911CA81BA9741CCDE902100194E0
:102660000C9800F033FA0E90472F3FF4AEAD0E9B5E
:102670001C4451E71F9BA342BFF458AF30215A1CA2
:102680001F9219701F9B9C42F9D84FE7179E9DF827
:102690006780FEF7CDBF129B19460F9B994231DC34
:1026A0001BF0010F40F09C8023EAE37207920B932A
:1026B000672755E721AA08990C9803F001FA00282A
:1026C0007EF456AF0DF1B80A239C2EE421AA089996
:1026D0000C9803F0F5F900287EF44AAF1B9B129A80
:1026E000239CD31A0DF1B80A55E4062643E5079654
:1026F0000B960D940646CDF818B00F909DF86780A4
:10270000FEF796BFDDE9123213440F9A0B93002AAD
:1027100006DC0F9B0B9AC3F101031A4413460B927C
:1027200023EAE373079367271AE78DF86710FEF72C
:102730003FBF8DF86710FEF7E3BF8DF86710FFF716
:10274000FFB88DF86710FFF79BB88DF86710FFF79B
:10275000B8B88DF86710FEF7ABBFDFF8ECB0FFF745
:1027600024BA4FF0FF330993FEF707BF30231A4412
:102770008DF8763004238DF8772016937BE5BB46E1
:1027800001322C44072ACDE92224CAE900B57FF79B
:1027900026AB21AA08990C9803F092F900287EF440
:1027A000E7AEDDE922240DF1B80AFFF71ABB1BF0F2
:1027B00001020F927FF466AD23EAE3730793CFE63D
:1027C000119B0321002BB7BF2D239DF867809846EE
:1027D0008DF8673007910026194A1A4BFFF7A3B806
:1027E0000F9B139A672713440B9323EAE373079312
:1027F000B6E6139BD31833440B93DDE71BB90123D3
:1028000007930B93ACE6139B013333440B9323EAFA
:10281000E3730793A4E65246DFF82CB04EE602239A
:10282000169328E50D9B99F8017053F8046B8146C7
:1028300046EAE6760D93FEF7EABDDFF80CB09FE7B7
:102840000081000804810008E880000810B4044CEE
:1028500013460A460146206810BCFEF761BD00BF62
:102860001000002070B50C4600264FF48065898961
:10287000ADF58D6D21F00201ADF80C100696616E7C
:10288000E6891991ADF80E60E169666A07910996CB
:1028900069461AAE00960496029505950646FEF71F
:1028A0003FFD051E07DB3046694601F01FF9002891
:1028B00018BF4FF0FF35BDF80C305B0603D5A38978
:1028C00043F04003A38128460DF58D6D70BD00BF18
:1028D00038B5314B054618680C4608B1836B0BB30D
:1028E000B4F90C2093B2180723D5206960B313F014
:1028F000010207D000226369A2605B42A36138B184
:10290000002038BD990758BF6269A2600028F7D13E
:10291000B4F90C301A06F4D543F04003A3814FF00C
:10292000FF3038BD01F0E8F9B4F90C2093B2180774
:10293000DBD4D90628D5580712D4206942F0080301
:10294000A3819BB20028D2D103F42072B2F5007F9C
:10295000CDD02846214601F03DFDA3892069C6E778
:10296000216B51B104F14003994204D0284601F093
:1029700033FAB4F90C20002323630023206922F0EA
:102980002402C4E90003D9E7092342F040022B6086
:102990004FF0FF30A28138BD100000200000000081
:1029A0002DE9F04F03690E6983B0B342C0F289800C
:1029B000013E01F1140500F1140955F8263059F8CB
:1029C000262001338246B000009005EB00089A42B1
:1029D0004844B2FBF3F701903CD30022AE461446C4
:1029E000CC465EF8043BDCF800001FFA83FB07FBD3
:1029F0000B221B0C4FEA124B07FB03BB93B2E31AEB
:102A000082B21FFA8BF41344C4EB104404EB23444A
:102A10009BB243EA0443F0454CF8043B4FEA24449C
:102A20004FEA1B42DDD2009B59F8033093B9019A5B
:102A3000131F99450CD252F8043C4BB9A2F108037C
:102A400002E01A68043B1AB9994506F1FF36F8D33B
:102A5000CAF81060504602F0B9FB00282DDB48464A
:102A60000023013755F8041B04688AB29A1A0B0C2C
:102A7000A1B20A44C3EB144303EB224392B242EAED
:102A80000342A84540F8042B4FEA2343EAD259F801
:102A9000262009EB860382B91A1F91450BD253F801
:102AA000042C42B9083B02E01A68043B1AB9994564
:102AB00006F1FF36F8D3CAF81060384603B0BDE817
:102AC000F08F002003B0BDE8F08F00BF2DE9F04F7C
:102AD0001F461646036C97B00446CDE902674BB11A
:102AE0000122456C1946AA40C3E9015202F0FCF8E4
:102AF000002323643E1EB4BF01230023239AB8BFE2
:102B000026F000461360764BB8BF0396B34300F03F
:102B1000AF80DDE902231046194600220023CDE9EB
:102B2000080104F09DFE074678B10123229A136044
:102B3000249B002B00F041836A4B249A1360013BD5
:102B40000493049817B0BDE8F08F14AA15ABCDE933
:102B50000032DDE90889204642464B4602F064FC1B
:102B6000350D834640F09A80DDE91485454405F231
:102B70003243202B40F3F183C3F140039E40029B7C
:102B800005F2124023FA00F0304304F087FB0246BE
:102B90000120013D0D90A1F1F87310461946002265
:102BA000514B04F03DFA48A3D3E9002304F0F0FBB5
:102BB00047A3D3E9002304F035FA064628460F461A
:102BC00004F07CFB44A3D3E9002304F0E1FB0246BC
:102BD0000B463046394604F025FA06460F4604F007
:102BE00087FE0022824600233046394604F042FE2A
:102BF000002840F0D582A8EB05056B1EBAF1160F30
:102C0000059300F2C282DDE90801384B03EBCA03E9
:102C1000D3E9002304F02EFE00286DD000230C938E
:102C2000059B0AF1FF3A002BC0F2B5824FF0000974
:102C3000BAF1000F66DACAF100030B93209BA9EBEF
:102C40000A09092BCDF818A04FF0000A63D8052B0C
:102C500040F381830025043B2093209B023B032B00
:102C600000F27A86DFE813F0A804A5047E04980435
:102C700042F20F73229AC6F313061360029B33438A
:102C800019D1249B002B00F07686194B049308334E
:102C9000249A0498136017B0BDE8F08FC9F31301AC
:102CA00041F07F534246A5F2FF350D9743F44013A0
:102CB000DDF8508071E7249B002B40F041840D4BE0
:102CC00004933EE7AFF3008061436F63A787D23F71
:102CD000B3C8608B288AC63FFB799F501344D33F0B
:102CE0000000F07F398100080000F83FA88100084B
:102CF000408100083C810008059B0C90002BC0F22D
:102D00004A828146059B5344CDE9053A00230B9343
:102D1000209B092B9BD900230125209321934FF061
:102D2000FF330A9507930021079B616410932046A7
:102D300001F0B4FF0490002800F01686049B236481
:102D4000079B0E2B00F23481002D00F03181069993
:102D5000002940F37384AA4B01F00F0203EBC20376
:102D60000D11D3E90023CDE90E23EA0640F13C849E
:102D7000DDE90801A34B0327D3E9082304F032FC63
:102D8000CDE9020105F00F057DB1DDE90E019D4E93
:102D9000EB0704D5D6E9002304F0FAFA01376D10E9
:102DA00006F10806F4D1CDE90E01DDE90201DDE905
:102DB0000E2304F017FCCDE902010C9B43B1DDE9C1
:102DC00002010022904B04F055FD002840F03A85A6
:102DD000384604F073FADDE9022304F0D9FA8B4B8C
:102DE000002204F01FF9A1F15073CDE90E010F93F9
:102DF000079B002B00F0BC80069B1293079B11934E
:102E0000DDE902673946304604F072FD054604F0FC
:102E100055FA02460B463046394604F001F9119A3C
:102E2000774B064603EBC2030F46DDE90E120A9804
:102E3000CDE9021253E90223049930355FFA85F88F
:102E40004D1C002800F090840020714904F0CAFB5A
:102E5000DDE9022304F0E4F8049B324683F80080A5
:102E60003B46CDE9020104F023FD002840F0CB846D
:102E700032463B460020644904F0D2F802460B4635
:102E8000DDE9020104F014FD002840F05185119B9A
:102E9000012B00F08980049ACDF844901344CDF8BA
:102EA0004CA0CDF838B09946DDE902ABA0460FE062
:102EB00032463B460020544904F0B2F852465B4685
:102EC00004F0D8FC002840F002854D4500F008854C
:102ED0005046594600224F4B04F05AFA00224D4BFF
:102EE00082468B463046394604F052FA0F46064673
:102EF00004F0FEFC044604F0E1F902460B463046BD
:102F0000394604F08DF83034E4B205F8014B5246EE
:102F10005B4606460F4604F0ADFC0028C8D0444688
:102F2000129BDDF838B0013306935946204601F074
:102F3000DBFE00232B70229B1A46069B1360249B0A
:102F4000002B3FF4FEAD04981D6017B0BDE8F08F74
:102F5000384604F0B3F9DDE9022304F019FA2B4BEB
:102F6000002204F05FF8A1F15073CDE90E010F9338
:102F70000022DDE90201284B04F052F8DDE90E7869
:102F80003A46434605460E4604F092FC07460028A2
:102F900040F0D483DDE90E01024601F100432846EA
:102FA000314604F067FC30BBDDE90823CDE902239C
:102FB000159B002BC0F2C780069A0E2A00F3C3802F
:102FC0000F4B03EBC203D3E9009A219B002B25DAB8
:102FD000079F002F22DC40F06A8400220E4B4846F7
:102FE000514604F0D5F9DDE9022304F057FC00282E
:102FF00000F0A583079F3E46219B049DDB4373E2BF
:10300000A8810008988200080000F03F00001C40E2
:103010000000E03F0000244000001440DDE90267AA
:103020004A4653463046394604F0DCFA04F060FC68
:10303000804604F043F94A46534604F0A9F9024693
:10304000304646460B46394603F0EAFF049D3036CB
:10305000069F05F8016B079E0137012E02460B46BD
:10306000069744D00022CA4B04F092F900220023B4
:1030700006460F4604F0F4FB00287FF456AFCDF867
:1030800008B04FF00108DDF81CB005940CE00022F8
:10309000BF4B04F07DF90022002306460F4604F0E2
:1030A000DFFB002840F041834A465346304639460C
:1030B00004F098FA04F01CFC044604F0FFF84A46B9
:1030C000534604F065F902460B463046394603F094
:1030D000A7FF08F1010804F13006C34502460B467C
:1030E00005F8016BD3D1A046DDF808B0059C104669
:1030F000194603F097FF4A46534606460F4604F02A
:10310000D7FB60B94A4653463046394604F0A8FB1F
:1031100000283FF40AAF5FEAC8717FF506AF15F8E3
:10312000018C6B1E049A04E09A4200F0B18313F8FC
:10313000018DB8F1390F03F10105F5D008F1010255
:10314000D2B21A70F1E60A9A002A3CD0209A012ADB
:1031500040F36782079B5F1E0B9BBB4280F242825B
:103160000B9B0B97FB1A00279A44079B002BC0F27E
:10317000E182059A4D461146194405919944012171
:10318000204601F0B5FE064620E001230C93059B86
:10319000002BBFF64BAD0023C5F10109059347E5B0
:1031A000504604F08BF832463B4604F059FB0028A9
:1031B0007FF421AD0AF1FF3A1DE5764B04930498A4
:1031C00017B0BDE8F08F4D460B9F0A9E002D0BDD1A
:1031D000059A002A08DDAA421346A8BF2B46A9EB90
:1031E0000309ED1AD31A05930B9BD3B10A9B002B4D
:1031F00000F09F81002F10DD31463A46204601F055
:1032000033FF5A4601460646204601F087FE034634
:10321000594620469B4601F067FD0B9BDA1B40F0A8
:1032200089810121204601F063FEBAF1000F0746B3
:1032300000F39980209B012B40F3878100230893A2
:103240000120BAF1000F40F09A80059A104410F066
:103250001F0079D0C0F12003042B40F36E83C0F12E
:103260001C000244814405440592B9F1000F05DDBC
:1032700059464A46204601F043FF8346059B002BF2
:1032800005DD39461A46204601F03AFF07460C9BF9
:10329000002B40F03381079B002B40F30A810A9BEF
:1032A000002B40F08680069B01330693049D4FF06F
:1032B0000108DDF81C9008E0594600230A22204648
:1032C00001F01CFD834608F1010839465846FFF716
:1032D00067FBC14500F1300005F8010BECDC03464B
:1032E0004FF0000A594601222046029301F008FFE0
:1032F0003946834601F06AFF002815F8012C40F397
:103300007B816B1E049904E0994200F0838113F8DD
:10331000012D392A03F10105F6D001321A70394620
:10332000204601F0E1FC002E3FF4FFADBAF1000FA2
:1033300005D0B24503D05146204601F0D5FC3146B8
:10334000204601F0D1FCF0E51C20059B814403449C
:103350000544059389E701257FE4C3F12006029B1C
:1033600003FA06F011E401465246204601F07CFEC5
:10337000209B0746012B40F38B81002308933B6978
:1033800007EB8303186901F063FDC0F120005CE7DF
:103390000000244038810008314600230A222046DC
:1033A00001F0ACFC109B0646002B40F3B982CDE93E
:1033B0000683002D05DD31462A46204601F0A0FE99
:1033C0000646089B002B40F09981B1460499029B68
:1033D000884603F001024B1E20990B920A430A9281
:1033E000079A1A44089239465846FFF7D9FA3146E7
:1033F0000290584601F0EAFE4A4682463946204687
:1034000001F000FF029BC26805463033002A42D11A
:1034100001465846079301F0D9FE294605902046FB
:1034200001F062FC059A079B1AB90A99002900F07D
:103430006082BAF1000F08F10105C0F241812099C4
:1034400041EA0A0A0B9951EA0A0100F03981002A7F
:1034500000F37781089A88F80030424500F07E81B9
:10346000594600230A22204601F048FC4E45834677
:1034700031464FF000034FF00A02204613D001F00E
:103480003DFC4946064600230A22204601F036FC50
:10349000A8468146A7E701462046059301F024FC93
:1034A0000122059BC5E701F029FCA8460646814696
:1034B00099E7209B022B40F38280079B002B7FF42F
:1034C0009BAD39460522204601F018FC014607460F
:1034D000584601F07BFE00287FF78EAD3122049D17
:1034E000069B05F8012B013301333946204606932C
:1034F00001F0FAFB002E7FF422AF16E5394658465C
:1035000001F064FE0028BFF6C6AE594600230A2229
:10351000204601F0F3FB069B834603F1FF380A9B2C
:10352000002B7FF439AF109B002B40F3EF81079302
:10353000BCE60B9A5946204601F096FD834670E69C
:10354000BA4B04930333FFF7A3BBDDE90212002952
:103550007FF474AEC2F31303002B00F0A480029B2F
:1035600008936DE601230A93219B002B3FDD1E4645
:10357000109307930021172E61647FF7D8AB0122C7
:1035800004235B0003F11400B042114602F1010272
:10359000F7D96164FFF7CBBB01230A93219B069AFD
:1035A000134410930133012B1E460793B8BF012625
:1035B000E0E700230A93F1E700230A93D4E70A9B8C
:1035C000002B7FF4F6AE39465846FFF7E9F9069A24
:1035D000049D00F130030132069205F8013B4FF0E3
:1035E000000A7FE6DF1BC0E50227FFF7CDBB012302
:1035F00021930793FFF797BB03D1029BDB073FF5AE
:1036000080AE6B1E01E013F8012D302A03F1010595
:10361000F9D084E63123069A01320692049A137097
:103620007DE60D9A002A00F0F380059A03F23343F9
:103630001A444D46059299440B9FA0E500F0F28094
:10364000DDE90801069B5D42794B05F00F0203EBB3
:10365000C203D3E9002303F09BFE2D11CDE9020143
:1036600000F0E08000230227724EEA0705D5D6E974
:10367000002303F08DFE01231F446D1006F10806A0
:10368000F3D1002B3FF499ABCDE90201FFF795BBD5
:10369000029B002B7FF471AEDDE90212C2F313032B
:1036A000002B40F04F81644B1340002B00F0FD8055
:1036B000059B09F101090133059301230893BFE537
:1036C0000699002A01F10101069112DD59460122F5
:1036D0002046059301F014FD3946834601F076FD3E
:1036E0000028059B40F3ED80392B00F0D880029B29
:1036F0003133B24688F800304E4610E671682046F5
:1037000001F0CCFA0546002800F01F81336906F16C
:103710000C0102339A000C3001F090F92946012285
:10372000204601F0EDFC814650E6DDF808B0059C2E
:10373000FFF7FBBB079BA9EB030520E500273E46EF
:10374000CCE6069A392B02F10102069200F0A7801E
:103750000133B24688F800304E46E0E5069AB2469C
:10376000013206924E46BDE5DDE9020103F010FE8E
:10377000049BCDE9020183F80080119B012B22D02C
:10378000119B049ACDF838901344994600222B4B94
:103790003046394603F0FCFD0F46064604F0A8F813
:1037A000804603F08BFD02460B463046394603F057
:1037B00037FC08F1300805F8018B4D4506460F46E9
:1037C000E4D1DDF838900022DDE902011C4B03F062
:1037D00029FC32463B4604F04DF800286BD1DDE968
:1037E00002230020164903F01BFC32463B4604F03E
:1037F0005FF800283FF4D8AB00E0154615F8013C0F
:103800006A1E302BF9D0129B01330693FFF78DBB54
:10381000149B059AC3F136031A444D460592994408
:103820000B9FACE40227FFF7C8BA00BF3C81000839
:10383000A8810008988200080000F07F0000244062
:103840000000E03F079B002B3FF482AB109D002D52
:103850007FF7AAABDDE9020100224E4B03F098FD91
:10386000CDE90201781C03F029FDDDE9022303F014
:103870008FFD0022484B03F0D5FB069AA1F150734F
:10388000013ACDE90E0112920F931195FFF7B8BAE4
:10389000069A0132069231221A70FFF746BB39228E
:1038A000B24688F800204E462BE50893C8E400276E
:1038B0003E46FFF7A1BB129B0133069315F8018C1E
:1038C0002FE47FF416AFDA077FF513AF0CE743461A
:1038D000A0461C46129BDDF838B00133069320E465
:1038E000DDF84490DDF84CA0DDF838B04446FFF731
:1038F0005BBB069A392B02F10102069208F1010521
:10390000CDD0BAF1000F3FF7F2AEF2E6209B022BCA
:1039100002DCCDF8188056E6109BCDE90683CCE595
:10392000209B022BF8DC109BCDF81880079340E514
:10393000129B01330693FFF7F4BB3FF496ACC0F142
:103940003C0002E5029B089319E50246134B40F246
:10395000EA21134802F008FF002520466564294645
:1039600001F09CF9049050B90C4B00224FF4D57132
:103970000B4802F0F9FE0B4B0493FFF7E2B84FF04F
:10398000FF33079310930123049A219522640A932D
:10399000FFF70EBB0000244000001C404C810008D3
:1039A0006081000840810008B1F90C302DE9F04138
:1039B0009AB20C461107804648D4626843F400630B
:1039C000002AA3815EDDA56A002D58D000229BB29B
:1039D000D8F80060E169C8F8002013F4805255D18E
:1039E00001234046A847431C67D0A389A56AE16923
:1039F0005F0705D56268236B801A0BB1E36BC01AB1
:103A0000024600234046A847451C49D1D8F800206B
:103A1000B4F90C30002A5DD01D2A01D0162A3AD103
:103A20000021226923F40063C4E90021A381216BF2
:103A3000C8F8006019B304F14003994202D040462F
:103A400000F0CAF900202063BDE8F0812669B6B114
:103A5000910718BF0023256808BF63692660AD1B66
:103A6000A3600AE02B463246676AE1694046B847E0
:103A70000028A5EB000506440ADD002DF2DC00203D
:103A8000BDE8F081E26B002A9DDCF8E7206DAFE72E
:103A90004FF0FF30A38943F04003A381BDE8F081DC
:103AA0000021B4F90C30226923F40063C4E9002139
:103AB000DA04A381BBD52065B9E7D8F80030002B24
:103AC00093D01D2B0FD0162B0DD0A38943F04003AC
:103AD000A381D5E723F400632169A381DB04C4E952
:103AE0000012A4D5E7E7C8F80060C8E710B504469F
:103AF00082B008B1836B23B1B1F90C0048B902B0B0
:103B000010BD019100F0F8F80199B1F90C000028FE
:103B1000F5D0204602B0BDE81040FFF745BF00BF1A
:103B200020B1054B01461868FFF7E0BF034B04497D
:103B3000186800F0EFBB00BF10000020D080000824
:103B4000ED3A000800207047014900F0E3BB00BFD8
:103B5000356800082DE9F84F0746002404230321A7
:103B60007D682A4807F53B72C7E9B912F863C7F8C0
:103B7000E04205F15C00EB606C66C5E90044AC60B6
:103B8000C5E90444AC612146082201F033F8DFF8AE
:103B900088B0BE68DFF884A0DFF88490DFF8848006
:103BA0001B4BC5E9075BC5E909A9C5F82C8021466F
:103BB000F360082206F15C007466C6E90044B46054
:103BC000C6E90444B46101F015F8FD68114BC6E97B
:103BD000076BC6E909A9C6F82C802146EB606C6624
:103BE000C5E90044AC60C5E90444AC6105F15C0082
:103BF000082200F0FFFF0123C5E9075BC5E909A919
:103C0000C5F82C80BB63BDE8F88F00BF493B0008B6
:103C10000900010012000200B9590008E15900082A
:103C2000215A0008415A00080020704770B56825E5
:103C30004A1E05FB02F50E4605F1740100F014FC66
:103C4000044640B100210C30666005F16802216035
:103C5000A06000F0CFFF204670BD00BF1F4B70B5C5
:103C60001D680646AB6B4BB305F53875D5E90134D5
:103C7000013B05D51EE0013B5A1C04F1680419D034
:103C8000B4F90C20002AF6D10025154B6566C4E96D
:103C90000055A560C4E90455A5612946E3600822E2
:103CA00004F15C0000F0A6FFC4E90C55C4E911550D
:103CB000204670BD2C682CB12546D7E72846FFF773
:103CC00049FFD1E704213046FFF7B0FF04462860E2
:103CD0000028F1D10C233360EAE700BFD080000850
:103CE0000100FFFF024B0349186800F013BB00BF3F
:103CF000D080000835680008836B03B1704729E75E
:103D0000704700BF704700BF704700BF704700BFDB
:103D1000024B0349186800F0D9BA00BF1000002018
:103D2000453B0008024B0349186800F0CFBA00BFBA
:103D300010000020293C0008F8B50C46234F064629
:103D400000F0A8FFBB68C4F57E615D680F3125F007
:103D50000305294421F47F6121F00F01A1F580546E
:103D6000B4F5805F07DB0021304601F013FEBB682D
:103D70002B44984204D0304600F08EFF0020F8BD5E
:103D80006142304601F006FE01300DD0104BBA689A
:103D900019682D1B45F001053046091B5560196057
:103DA00000F07AFF0120F8BD0021304601F0F2FD5D
:103DB000BA68831A0F2BDEDD064943F001030C6855
:103DC0000349001B53600860D5E700BF4004002092
:103DD000C00900204808002000295ED0F8B50F4631
:103DE000064600F057FF57F804CC754DA7F10800C0
:103DF0002CF00103C218A9685468914224F003040E
:103E000000F084801CF0010F546002EB040133D1F8
:103E100057F808EC4968A0EB0E00876805F1080C1C
:103E20006745734401F0010160D0D0F80CE0C7F899
:103E30000CE0CEF80870002900F08D8043F00101FD
:103E400041601360B3F5007F30D20122DB086C685B
:103E5000991013448A40224305EBC30155F83340BF
:103E60000839C0E902416A6045F83300E060304635
:103E7000BDE8F84000F010BF4968C9070ED42344DC
:103E800005F1080C916843F0010461456BD0D268DC
:103E9000CA6091604460C350D4E7704743F00101A9
:103EA000B3F5007F47F8041C1360CED35A0A042AE6
:103EB00046D89A0902F13907FF0002F13801EC19DE
:103EC000EA59083C944255D0516821F003019942C7
:103ED00002D992689442F7D1D468C0E90224A06064
:103EE000D0603046BDE8F84000F0D6BE002962D16F
:103EF000D2E90221234443F00104D1608A60446086
:103F0000C3503046BDE8F84000F0C6BE1CF0010FBB
:103F1000234407D157F8084C001BD0E90212234470
:103F2000CA609160274A43F00101126841609A42D9
:103F3000A8609CD8244B30461968FFF7FDFE96E731
:103F4000142A0AD9542A1DD81A0B02F16F07FF0050
:103F500002F16E01B3E7234494E702F15C07FF002E
:103F600002F15B01ABE7C5E90400C0E902CC4460A3
:103F7000C3507CE701276B68891007FA01F11943E8
:103F80006960AAE7B2F5AA7F06D8DA0B02F17807D2
:103F9000FF0002F1770192E740F254518A4206D8BD
:103FA0009A0C02F17D07FF0002F17C0187E74FF4D4
:103FB0007E777E2183E743F001014160136056E77D
:103FC000400400204C080020BC0900209368002B0E
:103FD00000F0FC802DE9F04FB1F90C300C469BB29B
:103FE000190783B0824690462BD522694AB313F055
:103FF0000202D8F8006033D000273D46D4F824B040
:10400000E169DFF8C492C5B14D452B463A4628BF59
:104010004B465046D847002840F3CE80D8F80830A9
:1040200007441B1A2D1AC8F80830002B00F0B38083
:10403000D4F824B0E169002DE6D1D6E90075083640
:10404000E1E721465046FEF743FC002840F0378167
:10405000B4F90C30D8F800609BB213F00202CBD157
:1040600013F0010940F0B4804D46A7682068002D88
:1040700055D09A0540F1C080AF42BB4600F2EE80B9
:1040800013F4906F2FD0D4E9041707EB4707A0EB88
:10409000010B07EBD777681C7F105844B8423A46AB
:1040A00084BF07463A465B0540F1F0801146504612
:1040B00000F0DAF9002800F0FC805A4621690190EE
:1040C00000F0BCFCA289019B22F4906242F08002C5
:1040D000A281A7EB0B0203EB0B006761AB462F46F7
:1040E00023612060A2605A46494600F01DFD236806
:1040F000A2685B44AB460025D71BA7602360D8F8B5
:104100000870D944A7EB0B07C8F80870002F42D0FD
:10411000B4F90C30A7689BB22068002DA9D1D6E96C
:1041200000950836A3E70BF1080353F8047C9B467F
:1041300053F8086C0833002FF7D03A460A2130466E
:1041400000F036FC002854D00130A0EB06094B46A5
:1041500020682169BB4228BF3B468842626903D977
:10416000A5681544AB421ADC9A4200F381801346DD
:10417000656A3246E1695046A847051E1CDDB9EB69
:1041800005096ED00120D8F808302E445B1B7F1B38
:10419000C8F8083013BB002003B0BDE8F08F3146EB
:1041A0002A4600F0C1FC236821462B442360504678
:1041B000FFF79CFC0028E2D0B4F90C304FF0FF3040
:1041C00043F04003A38103B0BDE8F08F00207047A7
:1041D00033469146104617464E469B46002FA2D0C6
:1041E0000028B4D13A460A21304600F0E1FB00280D
:1041F000AAD17B1C9946ABE72369834217D3626936
:10420000AA4214D82F4B676A9D4294BF2B466FF089
:10421000004393FBF2F3E16902FB03F350464A4685
:10422000B847B0F1000BC7DDA5EB0B0567E7AF4260
:1042300028BF2F4649463A4600F076FCA36822681C
:10424000DB1B3A44BB46A3602260002BECD1214625
:104250005046FFF74BFC0028E6D0ADE72F46AB46B3
:1042600041E721465046FFF741FC00288BD0A3E7E9
:104270001A4631461D46019300F056FCA16822689B
:10428000019BC91A1344A160236078E7504601F0EE
:10429000C3F9034600287FF41CAF21695046FFF79D
:1042A0009BFD0C22B4F90C30CAF8002023F08003E7
:1042B00084E70C22B4F90C30CAF800207EE74FF0F6
:1042C000FF3069E7FEFFFF7F00FCFF7F2DE9F04133
:1042D00010F538771AD088460026D7E90154013DF9
:1042E0000ED4A389013D012B06D9B4F90E30013358
:1042F00002D02046C04706436B1C04F16804F0D18D
:104300003F68002FE9D13046BDE8F0813E46304697
:10431000BDE8F0812DE9F84310F538761ED08846C7
:1043200007464FF00009D6E90154013D10D4A38996
:10433000013D012B08D9B4F90E30013304D02146D8
:104340003846C04749EA00096B1C04F16804EED105
:104350003668002EE7D14846BDE8F883B1464846A6
:10436000BDE8F883F03070470048704740090020EE
:10437000004870474009002070B50C46B1F90E1096
:1043800096B0002915461E4614DB6A4602F044FB2F
:1043900000280FDB019A4FF4806302F47042A2F50B
:1043A0000052B2FA82F24FF40060520932602B6080
:1043B00016B070BD0023A289336012F0800004D0D3
:1043C000402218462A6016B070BD4FF480632B60FF
:1043D00016B070BD8A890B46920706D5012103F1FC
:1043E000430259611A601A61704770B582B001AB1F
:1043F0006A460C460646FFF7BFFF00990546304661
:1044000000F032F8B4F90C3070B1164A0099F2633A
:10441000019A43F08003A3812060C4E904018AB9B2
:104420002B43A38102B070BD9A05FBD4012123F078
:10443000030304F1430243F00203A381616122609C
:104440002261EFE73046B4F90E1002F0F9FA10B924
:10445000B4F90C30E4E7A38923F0030343F001032C
:104460001BB2DDE7493B00082DE9F04F01F10B05D8
:10447000162D83B0064623D8102900F2B68000F02E
:1044800009FC102518230220D14F3B445C68A3F19E
:104490000802944200F0B6806368E16823F00303E9
:1044A00023445A68A56842F00102E96030468D60F5
:1044B00008345A6000F0F0FB204603B0BDE8F08FEE
:1044C00035F0070500F19180A94200F28E8000F0DE
:1044D000E1FBB5F5FC7FC0F090816B0A00F08C80A9
:1044E000042B00F26081AB0903F1390003F1380CB1
:1044F000C100B74F39444C680839A14206D10CE0DD
:10450000002A80F22981E468A14206D0636823F082
:1045100003035A1B0F2AF3DD60463C69DFF8B4C27F
:1045200064457AD0636823F003035A1B0F2A00F313
:104530007281002AC7E904CC80F26381B3F5007F61
:1045400080F00E810122DB08991013448A407968BB
:1045500057F833E007EBC3080A43A8F10801C4E9A0
:1045600002E17A6047F83340CEF80C400124831012
:104570009C40944257D8144206D120F003006400B6
:10458000144200F10400FAD007EBC009CE46804681
:10459000DEF80C309E4507D111E1002A80F21E8121
:1045A000DB689E4500F00B81596821F003014A1B2E
:1045B0000F2AF2DD45F001083046D3E902E41D443C
:1045C00042F00106C3F80480CEF80C40C4F808E0BD
:1045D000C7E90455C5E902CC6E605A50009300F05B
:1045E0005BFB009B03F1080402E00C230024336012
:1045F000204603B0BDE8F08F4FF4007140204FF02B
:104600003F0C76E7DC68A34208BF02307FF444AF7A
:104610003C69DFF8C0C1644584D101247A68831005
:104620009C409442A7D9BC68636823F00308A8455E
:1046300003D3A8EB05030F2B7EDCDFF89C91D7F8A2
:104640000824D9F80030013204EB080A2B4400F0AA
:104650002D8103F580530F3323F47F6B2BF00F0B69
:104660005946304601F096F9411C024600F0ED80B3
:10467000824500F2E880D9F804105944C9F80410C2
:104680000B4600F04981D7F8081401311BBFA2EB9B
:104690000A0A5344C7F80824C9F8043012F0070383
:1046A00000F01081C3F108010A44C3F5805193441E
:1046B0000831A1EB0B01C1F30B0A514630460193BF
:1046C000009201F067F9421CDDE9002300F0498106
:1046D000831A03EB0A0BD9F804104BF00103514481
:1046E000BC42BA60C9F80410536000F02181B8F1EF
:1046F0000F0F40F21F814FF0050C6368A8F10C000A
:1047000020F0070003F00103034304EB000E0F2821
:104710006360CEE901CC00F22B8114465368D9F8CE
:104720002C208A42D9F8302038BFC9F82C108A4290
:1047300038BFC9F830108AE045F0010243F00103A8
:10474000254462603046BD6008346B6000F0A4FA16
:10475000204603B0BDE8F08F23445A68E168A1E623
:104760005A0A042A69D9142A00F2BE8002F15C01B7
:10477000C9005B3207EB010E7958AEF1080E8E4589
:1047800000F097804A6822F003029A4202D98968B1
:104790008E45F7D1D1F80CE07A68C4E9021ECEF854
:1047A0000840CC60E2E6142B5FD9542B00F2A480C1
:1047B0002B0B03F16F0003F16E0CC10099E608F1B9
:1047C000010818F0030F0EF1080E7FF4E1AE57E078
:1047D0004004002048040020BC0900201C46194465
:1047E0004A68DB6854F8085F42F001024A603046CC
:1047F000EB609D6000F050FAFAE6E80805F1080366
:1048000042E623445A68304642F001025A600834B6
:1048100000F042FAECE645F0010E42F001012544B9
:10482000C4F804E03046C7E90455C5E902CC696024
:10483000E25000F031FA0834DAE69A0902F139015F
:10484000C900383296E7BC4260D0BC68636823F088
:10485000030BAB45ABEB050302D30F2B3FF76CAF5C
:10486000304600F019FA0024C2E603F15C0003F1BF
:104870005B0CC1003DE659F808394B4540F0968085
:1048800010F0030F00F1FF30F5D17B6823EA040339
:104890007B6064009C423FF6C6AE1CB9C3E6640070
:1048A00008F104081C42FAD040466DE603F1100BF3
:1048B000D6E64FF001087B68921008FA02F21A431C
:1048C0007A606AE702EB0B014942C1F30B0A5146D9
:1048D00030460193009201F05DF8431CDDE90023AE
:1048E0007FF4F6AE9A46F6E6542A26D81A0B02F161
:1048F0006F01C9006E323DE7B3F5AA7F26D8EB0BF6
:1049000003F1780003F1770CC100F2E5D9F8043027
:104910005B44C9F80430B6E6CAF30B0000287FF404
:10492000B2AE08EB0B03BC6843F001036360F6E62C
:104930001446F4E60123536092E7B2F5AA7F21D82A
:10494000DA0B02F17801C900773213E740F25452D2
:10495000934221D8AB0C03F17D0003F17C0CC10024
:10496000C7E5083B9B44ABEB020B4FF0000AB2E6F5
:1049700004F108013046FFF72FFABC68D9F804109B
:104980006368CCE640F254518A420BD89A0C02F18B
:104990007D01C9007C32EDE64FF47E717F204FF03F
:1049A0007E0CA6E54FF47E717E22E3E67B6870E71D
:1049B000830770B4CDB23DD0541E0AB30378AB4226
:1049C0001FD0431C05E014F1FF3419D30278AA422A
:1049D00017D013F0030F184603F10103F3D1032C92
:1049E00011D84CB30378AB420BD00444431C02E013
:1049F0000278AA4205D09C42184603F10103F7D180
:104A0000002070BC704702460E02B6B22E4346EA42
:104A10000646136810467340A3F1013121EA0303EF
:104A200013F0803F02F10402DCD1043C032C104659
:104A3000EFD8D6E71446D2E72046E2E7844641EABB
:104A4000000313F0030349D1403A23D30B680360FA
:104A50004B6843608B688360CB68C3600B690361FC
:104A60004B6943618B698361CB69C3610B6A0362E4
:104A70004B6A43628B6A8362CB6AC3620B6B0363CC
:104A80004B6B43638B6B8363CB6BC36340304031B1
:104A9000403ADBD230320BD30B6803604B68436083
:104AA0008B688360CB68C36010301031103AF3D24A
:104AB0000C3205D351F8043B40F8043B043AF9D2D8
:104AC000043208D0D2071CBF11F8013B00F8013BAB
:104AD00001D30B8803806046704700BF082A13D3B8
:104AE0008B07B1D010F00303AED0C3F10403D21A88
:104AF000DB071CBF11F8013B00F8013BA4D331F8E0
:104B0000023B20F8023B9FE7043AD9D3013A11F85F
:104B1000013B00F8013BF9D20B7803704B784370EE
:104B20008B788370604670478842F0B40DD98B183B
:104B300083420AD9841832B1224613F8014D9942B2
:104B400002F8014DF9D1F0BC70470F2A0ED8034688
:104B5000541E002AF7D001340C44013B11F8012BFC
:104B6000A14203F8012FF9D1F0BC704740EA0103DC
:104B70009B073AD1A2F110073F0901F1200606EB8D
:104B8000071601F1100300F1100453F8105C103304
:104B900044F8105C53F81C5C103444F81C5C53F867
:104BA000185C44F8185C53F8145CB34244F8145C85
:104BB000EBD17B1C1B0112F00C0F194402F00F0506
:104BC000034415D00E46043DAD0803EB850C1C1FB5
:104BD00056F8047B44F8047F6445F9D10135AD00F3
:104BE0002B44294402F00302B2E7541E0346B2E705
:104BF0002A46ADE7F0B4860746D0541E002A3CD0C2
:104C0000CAB2034602E014F1FF3436D303F8012B95
:104C10009D07F8D1032C29D9CDB245EA05250F2CE3
:104C200045EA054533D9A4F11006360903F12007FA
:104C300007EB061703F1100242E9045542E9025559
:104C40001032BA42F8D1721C14F00C0F03EB0212AE
:104C500004F00F0613D0331F23F00303043313446F
:104C600042F8045B9342FBD106F003042CB1C9B2B5
:104C70001C4403F8011B9C42FBD1F0BC7047344636
:104C80001346002CF3D1F8E714460346C2E71A4650
:104C90002646E0E7704700BF704700BFC36C70B5A1
:104CA00005460C464BB153F8240080B1026843F826
:104CB00024200023C0E9033370BD2122042101F028
:104CC00077FD0346E8640028EDD1002070BD012186
:104CD00001FA04F6721D2846920001F069FD0028D1
:104CE000F3D0C0E90146E4E731B1C36C4A6853F838
:104CF0002200086043F82210704700BFF0B54FF063
:104D0000000C0C4605460E6983B001F114073868A3
:104D10000CF1010C81B202FB0133000C190C02FBF7
:104D200000109BB203EB0043664547F8043B4FEA93
:104D30001043ECDC3BB1A268B24207DD04EB860213
:104D4000013653612661204603B0F0BD61682846F4
:104D500001310193FFF7A2FF019B0746B8B1226919
:104D600004F10C01023292000C300193FFF766FE51
:104D7000EA6C6168019B52F82100206042F82140F2
:104D80003C4604EB8602013653612661DBE70246AE
:104D9000024BB521024801F0E7FC00BF4C8100083E
:104DA000C08200082DE9F8431D46264E083386FBD5
:104DB0000346092D4FEAE37390460746C3EB6602AC
:104DC0000C46089E36DD012300215B009A4201F16A
:104DD0000101FADC3846FFF761FF68B30123B8F13F
:104DE000090FC0E9043613DC4FF009080A344545C1
:104DF0000CDDA5EB0805254414F8013B0146303BCA
:104E00000A223846FFF77AFFA542F5D1BDE8F883BC
:104E100004F109094E46444416F8013B0146303B73
:104E20000A223846FFF76AFFB442F5D1A8F1080418
:104E30004C44DCE70021CDE70246034BCE2103487A
:104E400001F092FC398EE3384C810008C0820008E2
:104E5000020C12040346CAB90304102013F07F4F5A
:104E600004BF1B02083013F0704F04BF1B01043055
:104E700013F0404F04BF9B000230002B05DB13F002
:104E8000804F00F1010008BF202070470020E5E7B7
:104E90000368014613F0070207D0DA0720D4980709
:104EA00022D55B080B600120704798B2B0B9102082
:104EB0001B0C13F0FF0F04BF1B0A08301A0704BFB6
:104EC0001B0904309A0704BF9B080230DA0703D499
:104ED0005B0800F1010005D00B6070471046E8E761
:104EE00000207047202070479B080B60022070470D
:104EF00010B50C460121FFF7D1FE024618B101237F
:104F0000C0E9043410BD034B4FF4A071024801F016
:104F10002BFC00BF4C810008C08200082DE9F04F37
:104F20000E69176983B0BE420C46154605DB3A464A
:104F30002B4637460D4616461C46AB68696807EB9C
:104F400006084345B8BF0131FFF7A8FE00900028CE
:104F50007FD0009B03F1140A0AEB8809CA4505D2E9
:104F60005346002143F8041B9945FBD804F1140E65
:104F70000EEB860B05F11403DE4503EB870753D2D6
:104F8000CDF80480984605E0090C28D1F3450AF1D4
:104F9000040A47D95EF8041B8EB2002EF4D04546B1
:104FA0005446002355F8041B20688AB21FFA80FC7F
:104FB00006FB02C2090C000C06FB0101134401EBC5
:104FC00013429BB243EA0243AF4244F8043B4FEA28
:104FD0001243E7D823605EF8041C090CD6D0DAF837
:104FE000003040461A4654464FF0000C0588120C1B
:104FF00001FB05229BB2944443EA0C4344F8043B72
:1050000050F8043B22681B0C95B201FB0353874206
:1050100003EB1C434FEA134CE8D8F34523600AF135
:10502000040AB7D8DDF80480B8F1000F0BDD59F899
:10503000043CA9F104091BB105E059F8043D13B97A
:10504000B8F10108F9D10098C0F8108003B0BDE8AC
:10505000F08F0246024B40F25D11024801F084FBE2
:105060004C810008C082000812F003032DE9F041D2
:10507000144607462ED10D46A4101CD0BE6C96B324
:10508000E3074FF0000806D4641014D03068A8B1CC
:105090000646E307F8D5324629463846FFF73EFF75
:1050A000B5B16A68FB6C641053F82210296043F8AC
:1050B00022500546EAD12846BDE8F0813246314605
:1050C0003846FFF72BFF3060C0F800800646E0E767
:1050D0000546D9E7094A013B52F823200023FFF790
:1050E0000DFE0546C8E740F271213846FFF700FF84
:1050F0000023B86406460360C2E700BF9881000839
:105100002DE9F8430E694FEA62198B684E44741C0E
:105110009C420D4690460746496804DD5B009C4270
:1051200001F10101FADC3846FFF7B8FD002842D052
:10513000B9F1000F00F1140C0EDD6346002109F1F6
:1051400005094FEA890900EB090243F8041B934261
:10515000FBD1A9F11409CC44296905F1140318F015
:105160001F0803EB810E1DD00022C8F12009196829
:1051700001FA08F111434CF8041B53F8042B734552
:1051800022FA09F2F3D3002A18BF2646CCF80020F1
:10519000FB6C6A68066153F82210296043F82250BC
:1051A000BDE8F883ACF1040C53F8042B9E454CF891
:1051B000042FF9D8ECE70246024B40F2D91102481D
:1051C00001F0D2FA4C810008C082000830B40B69AB
:1051D00005460069C01A10D19B00143514311944DA
:1051E0002B4401E09D4208D253F8044D51F8042DA0
:1051F0009442F7D003D24FF0FF3030BC704701200B
:1052000030BC70472DE9F04716460F6912690D460C
:10521000BF1A002F6AD1920001F1140C06F114019B
:105220000CEB0203114401E09C4562D253F8042DBB
:1052300051F8044DA242F7D053D36968FFF72EFD11
:10524000002860D0D5F810C03369143506F1140277
:10525000C76005EB8C0E02EB830800F114070021F8
:1052600000E037463E4655F8049B52F8044B1FFABF
:1052700089F30B441FFA84FA210CA3EB0A03C1EB58
:10528000194101EB23419BB243EA014390454FEAA8
:10529000214146F8043B2C46E3D8AE4516D93246A8
:1052A00054F8047BBBB20B44191401EB17419BB2B9
:1052B00043EA0143A64542F8043B4FEA2141EFD8B7
:1052C0000EF1FF377F1B27F0030737442BB957F840
:1052D000043D0CF1FF3C002BF9D0C0F810C0BDE834
:1052E000F0872B46012735461E46A6E7F9DB002747
:1052F000A3E70021FFF7D2FC60B101220023C0E93F
:105300000423BDE8F0870246064B4FF410710648AF
:1053100001F02AFA0246034B40F23221024801F022
:1053200023FA00BF4C810008C08200080E4B0B40DE
:10533000A3F15073002B02DD0020194670475B4239
:105340001B15132B05DC4FF40022002042FA03F159
:105350007047143B1E2BD6BF4FF00042012322FAA8
:1053600003F30021184670470000F07F2DE9F0415B
:10537000076900F1140606EB870757F8048C4046CE
:10538000FFF766FDC0F120030A280B60A7F10402B5
:1053900030DD9642A0F10B031DD257F8080C23B361
:1053A000C3F1200120FA01F208FA03F848EA0208E2
:1053B000A7F1080248F07F55964200FA03F045F441
:1053C000401503D257F80C3CCB40184304462946FD
:1053D0002046BDE8F0813BB108FA03F343F07F5566
:1053E00045F440150020F1E7184648F07F5545F494
:1053F0004015EBE796422CBF002257F8082CC0F16D
:105400000B0328FA03F138BFDA4000F1150341F02D
:105410007F5508FA03F345F4401543EA0204204699
:105420002946BDE8F08100BF70B5012182B0164663
:105430001C46FFF733FC054600284CD02346C4F336
:105440000A54C3F313030CB143F48013002E0193E9
:1054500022D068460096FFF71BFD002837D0019B3D
:10546000C0F12002009903FA02F20A43C3400193FB
:105470006A61002B14BF02210121AB612961B4B123
:10548000069BA4F2334404441C60079BC0F1350022
:105490001860284602B070BD01A8FFF7F9FC01238F
:1054A000019A19462030C5E90432002CE8D1069A49
:1054B00005EB8103A0F2324010601869FFF7C8FCC9
:1054C000079BC0EB41101860284602B070BDDDE9B3
:1054D00000236A61CDE70246024B40F20A310248DE
:1054E00001F042F94C810008C08200082DE9F04328
:1054F00083B00F4669460646FFF738FF04460D465F
:10550000384601A9FFF732FF36693A698946DDE975
:105510000013B61ACB1A03EB4613002B80460BDDA3
:1055200005EB03573D4642464B462046294602F0CE
:1055300059F803B0BDE8F083C3EB033309EB035123
:105540008946F0E71728D0B504460ADD002000267A
:105550000749084F32463B4601F01AFF013CF9D19A
:10556000D0BD054B03EBC004D4E90401D0BD00BF9E
:105570000000F03F000024409881000870B41469D6
:105580004E1E02F11403761103EB840101368B42A7
:1055900000EB86060CD2041F53F8045B994244F8D2
:1055A000045FF9D88B1A153B23F003030433184426
:1055B000864204D9002340F8043B8642FBD870BCE5
:1055C000704700BF03694A11934210B400F11404FC
:1055D0000FDA04EB83039C421CD253F8040C043B07
:1055E00018B114E053F8042D8AB99C42FAD310BCC8
:1055F000704704EB8203EEDD11F01F01EBD054F88D
:10560000220020FA01F202FA01F18842E3D00120DF
:1056100010BC70470020EAE72DE9F84F1746002933
:1056200000F0BB8007F10B0481460D46FFF732FB0B
:10563000162C5ED810242246A7425FD855F804ECF9
:10564000A5F108082EF00306964208EB060A80F240
:105650008180CA4BDAF804009968514500F0B580A2
:1056600020F0010353445B68DB0700F18A8020F0DF
:1056700003003318934280F212811EF0010F0FD104
:1056800055F8083CA8EB030BDBF8041021F00301EC
:1056900008448319934280F216817318934234DAD6
:1056A00039464846FEF7E0FE0746E0B155F8043CAF
:1056B000A0F1080223F001034344934200F0F78075
:1056C000321F242A00F2FB80132A296800F2C980C5
:1056D00003462A4619605168596092689A602946C3
:1056E0004846FEF779FB4846FFF7D6FA3846BDE84C
:1056F000F88F24F00704002C22469DDA0C230027A3
:10570000C9F800303846BDE8F88F5F46DBF80C106A
:1057100057F8080F321F242AC1600BEB030A886078
:1057200000F2E280132A296840F2E680CBF80810E4
:1057300069681B2ACBF80C10A96800F2EB800BF10A
:1057400010020835116069681E465160AB68D84682
:105750003D469360D8F80420331B0F2B02F0010262
:1057600020D83243C8F80420DAF8043043F00103AB
:10577000CAF804302F464846FFF78EFA3846BDE88F
:10578000F88F1EF0010F8BD155F8083CA8EB030BE6
:10579000DBF8041021F003017FE71146BDE8F84F64
:1057A000FEF762BE08EB0401224343F00103C8F890
:1057B00004204B60DAF80430083143F00103CAF8E2
:1057C00004304846FEF708FBD4E720F00300311808
:1057D00004F1100C61454FDA1EF0010F7FF460AF49
:1057E00055F8081CA8EB010BDBF8041021F00301AD
:1057F000084400EB060AD4453FF74FAF5F46DBF89D
:105800000C1057F8080F321F242AC160886000F27C
:10581000A380132A296840F29D80CBF8081069689C
:105820001B2ACBF80C10A96800F29C800BF1100227
:105830000835116069685160A9689160AAEB04029B
:105840000BEB040142F0010299604A60DBF804307E
:10585000484603F001031C43CBF80440FFF71CFA51
:1058600050E701606B681B2A436047D805F10802C6
:1058700000F10803A9682DE70A1B42F0010208EBBA
:10588000040199604A6055F8043C484603F001035E
:105890001C4345F8044CFFF7FFF92F4632E7DAE9DD
:1058A00002121E46CA6008EB030A916052E750F8E4
:1058B000043C23F003031E4408EB060A4AE729468A
:1058C000FFF732F90BE75F46DAE90201C160886051
:1058D00057F8080FDBF80C10321F242AC1600BEBBD
:1058E000030A88607FF61EAF294638461E46D84612
:1058F000FFF71AF93D462DE73A4623E7AB68242A1D
:105900008360EB68C36011D005F1100200F1100351
:105910002969DFE6CBF81010E968242ACBF81410C7
:1059200029690DD00BF1180210350BE72B6905F131
:1059300018020361696900F118034161A969C9E6A8
:10594000CBF8181069690BF12002CBF81C10A9697B
:105950001835F7E63A466CE729463846FFF7E4F88B
:10596000064B6BE7CBF81010E968242ACBF814102B
:10597000296905D00BF1180210355AE740040020C0
:10598000CBF8181069690BF12002CBF81C10A9693B
:1059900018354EE738B50023064C05460846236007
:1059A00002F082F9431C00D038BD2368002BFBD0E5
:1059B0002B6038BDF409002010B50C46B1F90E106B
:1059C00001F0B4F8002803DB236D0344236510BD08
:1059D000A38923F48053A38110BD00BF002070472A
:1059E0002DE9F041B1F90C409846E3050D46174604
:1059F000B1F90E10064609D424F48054AC81434614
:105A00003A463046BDE8F04100F098BE022300223D
:105A100001F056F8B5F90C40B5F90E10ECE700BFEF
:105A200010B50C46B1F90E1001F04AF8A389421CDA
:105A30000EBF23F4805343F480532065A38110BD2F
:105A4000B1F90E1000F0E4BE2DE9F84F4B6E93460D
:105A50009C042DD59368126843B30E46074602F1A5
:105A6000080959E9025A5FEA9A0815D00024043D52
:105A700001E0A0450ED0324655F8041F384600F02C
:105A800099FF431C04F10104F3D10023CBE9013356
:105A9000BDE8F88FDBF808302AF0030AA3EB0A030D
:105AA000CBF8083009F10809002BDAD10020ECE727
:105AB000FEF78CFA0023CBE90133BDE8F88F00BF75
:105AC000936803B1C0E710B41846536010BC704728
:105AD0002DE9F04FADB01C4605919046CDE906305A
